{
  "_format": "hh-sol-artifact-1",
  "contractName": "NexusPortalPass",
  "sourceName": "contracts/NexusPortalPass.sol",
  "abi": [
    {
      "inputs": [
        {
          "internalType": "uint256",
          "name": "_publicSalePrice",
          "type": "uint256"
        },
        {
          "internalType": "uint256",
          "name": "_mintListSalePrice",
          "type": "uint256"
        }
      ],
      "stateMutability": "nonpayable",
      "type": "constructor"
    },
    {
      "anonymous": false,
      "inputs": [
        {
          "indexed": true,
          "internalType": "address",
          "name": "owner",
          "type": "address"
        },
        {
          "indexed": true,
          "internalType": "address",
          "name": "approved",
          "type": "address"
        },
        {
          "indexed": true,
          "internalType": "uint256",
          "name": "tokenId",
          "type": "uint256"
        }
      ],
      "name": "Approval",
      "type": "event"
    },
    {
      "anonymous": false,
      "inputs": [
        {
          "indexed": true,
          "internalType": "address",
          "name": "owner",
          "type": "address"
        },
        {
          "indexed": true,
          "internalType": "address",
          "name": "operator",
          "type": "address"
        },
        {
          "indexed": false,
          "internalType": "bool",
          "name": "approved",
          "type": "bool"
        }
      ],
      "name": "ApprovalForAll",
      "type": "event"
    },
    {
      "anonymous": false,
      "inputs": [
        {
          "indexed": true,
          "internalType": "address",
          "name": "previousOwner",
          "type": "address"
        },
        {
          "indexed": true,
          "internalType": "address",
          "name": "newOwner",
          "type": "address"
        }
      ],
      "name": "OwnershipTransferred",
      "type": "event"
    },
    {
      "anonymous": false,
      "inputs": [
        {
          "indexed": true,
          "internalType": "address",
          "name": "from",
          "type": "address"
        },
        {
          "indexed": true,
          "internalType": "address",
          "name": "to",
          "type": "address"
        },
        {
          "indexed": true,
          "internalType": "uint256",
          "name": "tokenId",
          "type": "uint256"
        }
      ],
      "name": "Transfer",
      "type": "event"
    },
    {
      "inputs": [],
      "name": "MAX_PER_TX_MINT_LIST_SALE",
      "outputs": [
        {
          "internalType": "uint256",
          "name": "",
          "type": "uint256"
        }
      ],
      "stateMutability": "view",
      "type": "function"
    },
    {
      "inputs": [],
      "name": "MAX_PER_TX_PUBLIC_SALE",
      "outputs": [
        {
          "internalType": "uint256",
          "name": "",
          "type": "uint256"
        }
      ],
      "stateMutability": "view",
      "type": "function"
    },
    {
      "inputs": [],
      "name": "MAX_SUPPLY",
      "outputs": [
        {
          "internalType": "uint256",
          "name": "",
          "type": "uint256"
        }
      ],
      "stateMutability": "view",
      "type": "function"
    },
    {
      "inputs": [
        {
          "internalType": "address",
          "name": "to",
          "type": "address"
        },
        {
          "internalType": "uint256",
          "name": "tokenId",
          "type": "uint256"
        }
      ],
      "name": "approve",
      "outputs": [],
      "stateMutability": "nonpayable",
      "type": "function"
    },
    {
      "inputs": [
        {
          "internalType": "address",
          "name": "owner",
          "type": "address"
        }
      ],
      "name": "balanceOf",
      "outputs": [
        {
          "internalType": "uint256",
          "name": "",
          "type": "uint256"
        }
      ],
      "stateMutability": "view",
      "type": "function"
    },
    {
      "inputs": [],
      "name": "baseURI",
      "outputs": [
        {
          "internalType": "string",
          "name": "",
          "type": "string"
        }
      ],
      "stateMutability": "view",
      "type": "function"
    },
    {
      "inputs": [
        {
          "internalType": "uint256",
          "name": "_amount",
          "type": "uint256"
        }
      ],
      "name": "claim",
      "outputs": [],
      "stateMutability": "payable",
      "type": "function"
    },
    {
      "inputs": [
        {
          "internalType": "uint256",
          "name": "tokenId",
          "type": "uint256"
        }
      ],
      "name": "getApproved",
      "outputs": [
        {
          "internalType": "address",
          "name": "",
          "type": "address"
        }
      ],
      "stateMutability": "view",
      "type": "function"
    },
    {
      "inputs": [
        {
          "internalType": "address",
          "name": "owner",
          "type": "address"
        },
        {
          "internalType": "address",
          "name": "operator",
          "type": "address"
        }
      ],
      "name": "isApprovedForAll",
      "outputs": [
        {
          "internalType": "bool",
          "name": "",
          "type": "bool"
        }
      ],
      "stateMutability": "view",
      "type": "function"
    },
    {
      "inputs": [],
      "name": "isMintListSaleActive",
      "outputs": [
        {
          "internalType": "bool",
          "name": "",
          "type": "bool"
        }
      ],
      "stateMutability": "view",
      "type": "function"
    },
    {
      "inputs": [],
      "name": "isPublicSaleActive",
      "outputs": [
        {
          "internalType": "bool",
          "name": "",
          "type": "bool"
        }
      ],
      "stateMutability": "view",
      "type": "function"
    },
    {
      "inputs": [
        {
          "internalType": "uint256",
          "name": "n",
          "type": "uint256"
        }
      ],
      "name": "mintForTeam",
      "outputs": [],
      "stateMutability": "nonpayable",
      "type": "function"
    },
    {
      "inputs": [
        {
          "internalType": "bytes32[]",
          "name": "_merkleProof",
          "type": "bytes32[]"
        },
        {
          "internalType": "uint256",
          "name": "_amount",
          "type": "uint256"
        }
      ],
      "name": "mintListClaim",
      "outputs": [],
      "stateMutability": "payable",
      "type": "function"
    },
    {
      "inputs": [],
      "name": "mintListMerkleRoot",
      "outputs": [
        {
          "internalType": "bytes32",
          "name": "",
          "type": "bytes32"
        }
      ],
      "stateMutability": "view",
      "type": "function"
    },
    {
      "inputs": [
        {
          "internalType": "address",
          "name": "",
          "type": "address"
        }
      ],
      "name": "mintListSaleParticipants",
      "outputs": [
        {
          "internalType": "bool",
          "name": "",
          "type": "bool"
        }
      ],
      "stateMutability": "view",
      "type": "function"
    },
    {
      "inputs": [],
      "name": "mintListSalePrice",
      "outputs": [
        {
          "internalType": "uint256",
          "name": "",
          "type": "uint256"
        }
      ],
      "stateMutability": "view",
      "type": "function"
    },
    {
      "inputs": [],
      "name": "name",
      "outputs": [
        {
          "internalType": "string",
          "name": "",
          "type": "string"
        }
      ],
      "stateMutability": "view",
      "type": "function"
    },
    {
      "inputs": [],
      "name": "owner",
      "outputs": [
        {
          "internalType": "address",
          "name": "",
          "type": "address"
        }
      ],
      "stateMutability": "view",
      "type": "function"
    },
    {
      "inputs": [
        {
          "internalType": "uint256",
          "name": "tokenId",
          "type": "uint256"
        }
      ],
      "name": "ownerOf",
      "outputs": [
        {
          "internalType": "address",
          "name": "",
          "type": "address"
        }
      ],
      "stateMutability": "view",
      "type": "function"
    },
    {
      "inputs": [
        {
          "internalType": "address",
          "name": "",
          "type": "address"
        }
      ],
      "name": "publicSaleParticipants",
      "outputs": [
        {
          "internalType": "bool",
          "name": "",
          "type": "bool"
        }
      ],
      "stateMutability": "view",
      "type": "function"
    },
    {
      "inputs": [],
      "name": "publicSalePrice",
      "outputs": [
        {
          "internalType": "uint256",
          "name": "",
          "type": "uint256"
        }
      ],
      "stateMutability": "view",
      "type": "function"
    },
    {
      "inputs": [],
      "name": "renounceOwnership",
      "outputs": [],
      "stateMutability": "nonpayable",
      "type": "function"
    },
    {
      "inputs": [
        {
          "internalType": "address",
          "name": "from",
          "type": "address"
        },
        {
          "internalType": "address",
          "name": "to",
          "type": "address"
        },
        {
          "internalType": "uint256",
          "name": "tokenId",
          "type": "uint256"
        }
      ],
      "name": "safeTransferFrom",
      "outputs": [],
      "stateMutability": "nonpayable",
      "type": "function"
    },
    {
      "inputs": [
        {
          "internalType": "address",
          "name": "from",
          "type": "address"
        },
        {
          "internalType": "address",
          "name": "to",
          "type": "address"
        },
        {
          "internalType": "uint256",
          "name": "tokenId",
          "type": "uint256"
        },
        {
          "internalType": "bytes",
          "name": "_data",
          "type": "bytes"
        }
      ],
      "name": "safeTransferFrom",
      "outputs": [],
      "stateMutability": "nonpayable",
      "type": "function"
    },
    {
      "inputs": [
        {
          "internalType": "address",
          "name": "operator",
          "type": "address"
        },
        {
          "internalType": "bool",
          "name": "approved",
          "type": "bool"
        }
      ],
      "name": "setApprovalForAll",
      "outputs": [],
      "stateMutability": "nonpayable",
      "type": "function"
    },
    {
      "inputs": [
        {
          "internalType": "string",
          "name": "_baseURI",
          "type": "string"
        }
      ],
      "name": "setBaseURI",
      "outputs": [],
      "stateMutability": "nonpayable",
      "type": "function"
    },
    {
      "inputs": [
        {
          "internalType": "bytes32",
          "name": "_mintListMerkleRoot",
          "type": "bytes32"
        }
      ],
      "name": "setMintListMerkleRoot",
      "outputs": [],
      "stateMutability": "nonpayable",
      "type": "function"
    },
    {
      "inputs": [
        {
          "internalType": "bool",
          "name": "_isActive",
          "type": "bool"
        }
      ],
      "name": "setMintListSaleActive",
      "outputs": [],
      "stateMutability": "nonpayable",
      "type": "function"
    },
    {
      "inputs": [
        {
          "internalType": "uint256",
          "name": "_mintListSalePrice",
          "type": "uint256"
        }
      ],
      "name": "setMintListSalePrice",
      "outputs": [],
      "stateMutability": "nonpayable",
      "type": "function"
    },
    {
      "inputs": [
        {
          "internalType": "bool",
          "name": "_isActive",
          "type": "bool"
        }
      ],
      "name": "setPublicSaleActive",
      "outputs": [],
      "stateMutability": "nonpayable",
      "type": "function"
    },
    {
      "inputs": [
        {
          "internalType": "uint256",
          "name": "_publicSalePrice",
          "type": "uint256"
        }
      ],
      "name": "setPublicSalePrice",
      "outputs": [],
      "stateMutability": "nonpayable",
      "type": "function"
    },
    {
      "inputs": [
        {
          "internalType": "bytes4",
          "name": "interfaceId",
          "type": "bytes4"
        }
      ],
      "name": "supportsInterface",
      "outputs": [
        {
          "internalType": "bool",
          "name": "",
          "type": "bool"
        }
      ],
      "stateMutability": "view",
      "type": "function"
    },
    {
      "inputs": [],
      "name": "symbol",
      "outputs": [
        {
          "internalType": "string",
          "name": "",
          "type": "string"
        }
      ],
      "stateMutability": "view",
      "type": "function"
    },
    {
      "inputs": [
        {
          "internalType": "uint256",
          "name": "index",
          "type": "uint256"
        }
      ],
      "name": "tokenByIndex",
      "outputs": [
        {
          "internalType": "uint256",
          "name": "",
          "type": "uint256"
        }
      ],
      "stateMutability": "view",
      "type": "function"
    },
    {
      "inputs": [
        {
          "internalType": "address",
          "name": "owner",
          "type": "address"
        },
        {
          "internalType": "uint256",
          "name": "index",
          "type": "uint256"
        }
      ],
      "name": "tokenOfOwnerByIndex",
      "outputs": [
        {
          "internalType": "uint256",
          "name": "tokenId",
          "type": "uint256"
        }
      ],
      "stateMutability": "view",
      "type": "function"
    },
    {
      "inputs": [
        {
          "internalType": "uint256",
          "name": "tokenId",
          "type": "uint256"
        }
      ],
      "name": "tokenURI",
      "outputs": [
        {
          "internalType": "string",
          "name": "",
          "type": "string"
        }
      ],
      "stateMutability": "view",
      "type": "function"
    },
    {
      "inputs": [],
      "name": "totalSupply",
      "outputs": [
        {
          "internalType": "uint256",
          "name": "",
          "type": "uint256"
        }
      ],
      "stateMutability": "view",
      "type": "function"
    },
    {
      "inputs": [
        {
          "internalType": "address",
          "name": "from",
          "type": "address"
        },
        {
          "internalType": "address",
          "name": "to",
          "type": "address"
        },
        {
          "internalType": "uint256",
          "name": "tokenId",
          "type": "uint256"
        }
      ],
      "name": "transferFrom",
      "outputs": [],
      "stateMutability": "nonpayable",
      "type": "function"
    },
    {
      "inputs": [
        {
          "internalType": "address",
          "name": "newOwner",
          "type": "address"
        }
      ],
      "name": "transferOwnership",
      "outputs": [],
      "stateMutability": "nonpayable",
      "type": "function"
    },
    {
      "inputs": [],
      "name": "withdraw",
      "outputs": [],
      "stateMutability": "nonpayable",
      "type": "function"
    }
  ],
  "bytecode": "0x60806040526000600560146101000a81548160ff0219169083151502179055506000600560156101000a81548160ff021916908315150217905550612710600855611388600955611388600a553480156200005957600080fd5b5060405162004b8838038062004b8883398181016040528101906200007f9190620002ea565b6040518060400160405280600f81526020017f4e65787573506f7274616c5061737300000000000000000000000000000000008152506040518060400160405280600581526020017f4e4558555300000000000000000000000000000000000000000000000000000081525081600090805190602001906200010392919062000223565b5080600190805190602001906200011c92919062000223565b5050506200013f620001336200015560201b60201c565b6200015d60201b60201c565b81600681905550806007819055505050620003bf565b600033905090565b6000600560009054906101000a900473ffffffffffffffffffffffffffffffffffffffff16905081600560006101000a81548173ffffffffffffffffffffffffffffffffffffffff021916908373ffffffffffffffffffffffffffffffffffffffff1602179055508173ffffffffffffffffffffffffffffffffffffffff168173ffffffffffffffffffffffffffffffffffffffff167f8be0079c531659141344cd1fd0a4f28419497f9722a3daafe3b4186f6b6457e060405160405180910390a35050565b82805462000231906200033b565b90600052602060002090601f016020900481019282620002555760008555620002a1565b82601f106200027057805160ff1916838001178555620002a1565b82800160010185558215620002a1579182015b82811115620002a057825182559160200191906001019062000283565b5b509050620002b09190620002b4565b5090565b5b80821115620002cf576000816000905550600101620002b5565b5090565b600081519050620002e481620003a5565b92915050565b60008060408385031215620003045762000303620003a0565b5b60006200031485828601620002d3565b92505060206200032785828601620002d3565b9150509250929050565b6000819050919050565b600060028204905060018216806200035457607f821691505b602082108114156200036b576200036a62000371565b5b50919050565b7f4e487b7100000000000000000000000000000000000000000000000000000000600052602260045260246000fd5b600080fd5b620003b08162000331565b8114620003bc57600080fd5b50565b6147b980620003cf6000396000f3fe60806040526004361061023b5760003560e01c8063627ea3d51161012e578063a22cb465116100ab578063e2e06fa31161006f578063e2e06fa314610855578063e985e9c51461087e578063f2fde38b146108bb578063f418ad8e146108e4578063fa1bbb7f146109215761023b565b8063a22cb46514610774578063ad5f1e811461079d578063b88d4fde146107c6578063c6efe6a9146107ef578063c87b56dd146108185761023b565b8063773e3d74116100f2578063773e3d741461069f578063791a2519146106ca5780638da5cb5b146106f357806395d89b411461071e5780639b6860c8146107495761023b565b8063627ea3d5146105b85780636352211e146105e35780636c0360eb1461062057806370a082311461064b578063715018a6146106885761023b565b806332cb6b0c116101bc5780634fa01cc6116101805780634fa01cc6146104e257806355f804b3146104fe5780635a4d448a146105275780635b507ddc146105505780635bafa9131461058d5761023b565b806332cb6b0c1461041e578063379607f5146104495780633ccfd60b1461046557806342842e0e1461047c5780634f6ccce7146104a55761023b565b80630ede5aa6116102035780630ede5aa61461033957806318160ddd146103625780631e84c4131461038d57806323b872dd146103b85780632f745c59146103e15761023b565b806301ffc9a71461024057806302f89f301461027d57806306fdde03146102a8578063081812fc146102d3578063095ea7b314610310575b600080fd5b34801561024c57600080fd5b506102676004803603810190610262919061323e565b61094c565b604051610274919061387f565b60405180910390f35b34801561028957600080fd5b506102926109c6565b60405161029f9190613c17565b60405180910390f35b3480156102b457600080fd5b506102bd6109cc565b6040516102ca91906138b5565b60405180910390f35b3480156102df57600080fd5b506102fa60048036038101906102f591906132e5565b610a5e565b6040516103079190613818565b60405180910390f35b34801561031c57600080fd5b5061033760048036038101906103329190613144565b610ae3565b005b34801561034557600080fd5b50610360600480360381019061035b91906131e4565b610bfb565b005b34801561036e57600080fd5b50610377610c94565b6040516103849190613c17565b60405180910390f35b34801561039957600080fd5b506103a2610ca1565b6040516103af919061387f565b60405180910390f35b3480156103c457600080fd5b506103df60048036038101906103da919061302e565b610cb4565b005b3480156103ed57600080fd5b5061040860048036038101906104039190613144565b610d14565b6040516104159190613c17565b60405180910390f35b34801561042a57600080fd5b50610433610e59565b6040516104409190613c17565b60405180910390f35b610463600480360381019061045e91906132e5565b610e5f565b005b34801561047157600080fd5b5061047a611129565b005b34801561048857600080fd5b506104a3600480360381019061049e919061302e565b6111f4565b005b3480156104b157600080fd5b506104cc60048036038101906104c791906132e5565b611214565b6040516104d99190613c17565b60405180910390f35b6104fc60048036038101906104f79190613184565b611265565b005b34801561050a57600080fd5b5061052560048036038101906105209190613298565b61159b565b005b34801561053357600080fd5b5061054e600480360381019061054991906132e5565b61162d565b005b34801561055c57600080fd5b5061057760048036038101906105729190612fc1565b6116ed565b604051610584919061387f565b60405180910390f35b34801561059957600080fd5b506105a261170d565b6040516105af9190613c17565b60405180910390f35b3480156105c457600080fd5b506105cd611713565b6040516105da9190613c17565b60405180910390f35b3480156105ef57600080fd5b5061060a600480360381019061060591906132e5565b611719565b6040516106179190613818565b60405180910390f35b34801561062c57600080fd5b506106356117d6565b60405161064291906138b5565b60405180910390f35b34801561065757600080fd5b50610672600480360381019061066d9190612fc1565b611864565b60405161067f9190613c17565b60405180910390f35b34801561069457600080fd5b5061069d611980565b005b3480156106ab57600080fd5b506106b4611a08565b6040516106c1919061389a565b60405180910390f35b3480156106d657600080fd5b506106f160048036038101906106ec91906132e5565b611a0e565b005b3480156106ff57600080fd5b50610708611a94565b6040516107159190613818565b60405180910390f35b34801561072a57600080fd5b50610733611abe565b60405161074091906138b5565b60405180910390f35b34801561075557600080fd5b5061075e611b50565b60405161076b9190613c17565b60405180910390f35b34801561078057600080fd5b5061079b60048036038101906107969190613104565b611b56565b005b3480156107a957600080fd5b506107c460048036038101906107bf9190613211565b611cd7565b005b3480156107d257600080fd5b506107ed60048036038101906107e89190613081565b611d5d565b005b3480156107fb57600080fd5b50610816600480360381019061081191906132e5565b611dbf565b005b34801561082457600080fd5b5061083f600480360381019061083a91906132e5565b611e45565b60405161084c91906138b5565b60405180910390f35b34801561086157600080fd5b5061087c600480360381019061087791906131e4565b611eec565b005b34801561088a57600080fd5b506108a560048036038101906108a09190612fee565b611f85565b6040516108b2919061387f565b60405180910390f35b3480156108c757600080fd5b506108e260048036038101906108dd9190612fc1565b612019565b005b3480156108f057600080fd5b5061090b60048036038101906109069190612fc1565b612111565b604051610918919061387f565b60405180910390f35b34801561092d57600080fd5b50610936612131565b604051610943919061387f565b60405180910390f35b60007f780e9d63000000000000000000000000000000000000000000000000000000007bffffffffffffffffffffffffffffffffffffffffffffffffffffffff1916827bffffffffffffffffffffffffffffffffffffffffffffffffffffffff191614806109bf57506109be82612144565b5b9050919050565b600a5481565b6060600080546109db90613ea0565b80601f0160208091040260200160405190810160405280929190818152602001828054610a0790613ea0565b8015610a545780601f10610a2957610100808354040283529160200191610a54565b820191906000526020600020905b815481529060010190602001808311610a3757829003601f168201915b5050505050905090565b6000610a6982612226565b610aa8576040517f08c379a0000000000000000000000000000000000000000000000000000000008152600401610a9f90613a77565b60405180910390fd5b6003600083815260200190815260200160002060009054906101000a900473ffffffffffffffffffffffffffffffffffffffff169050919050565b6000610aee82611719565b90508073ffffffffffffffffffffffffffffffffffffffff168373ffffffffffffffffffffffffffffffffffffffff161415610b5f576040517f08c379a0000000000000000000000000000000000000000000000000000000008152600401610b5690613b17565b60405180910390fd5b8073ffffffffffffffffffffffffffffffffffffffff16610b7e6122ae565b73ffffffffffffffffffffffffffffffffffffffff161480610bad5750610bac81610ba76122ae565b611f85565b5b610bec576040517f08c379a0000000000000000000000000000000000000000000000000000000008152600401610be3906139b7565b60405180910390fd5b610bf683836122b6565b505050565b610c036122ae565b73ffffffffffffffffffffffffffffffffffffffff16610c21611a94565b73ffffffffffffffffffffffffffffffffffffffff1614610c77576040517f08c379a0000000000000000000000000000000000000000000000000000000008152600401610c6e90613a97565b60405180910390fd5b80600560156101000a81548160ff02191690831515021790555050565b6000600280549050905090565b600560149054906101000a900460ff1681565b610cc5610cbf6122ae565b8261236f565b610d04576040517f08c379a0000000000000000000000000000000000000000000000000000000008152600401610cfb90613b57565b60405180910390fd5b610d0f83838361244d565b505050565b6000610d1f83611864565b8210610d60576040517f08c379a0000000000000000000000000000000000000000000000000000000008152600401610d57906138d7565b60405180910390fd5b6000805b600280549050811015610e175760028181548110610d8557610d84614038565b5b9060005260206000200160009054906101000a900473ffffffffffffffffffffffffffffffffffffffff1673ffffffffffffffffffffffffffffffffffffffff168573ffffffffffffffffffffffffffffffffffffffff161415610e045783821415610df5578092505050610e53565b8180610e0090613f03565b9250505b8080610e0f90613f03565b915050610d64565b506040517f08c379a0000000000000000000000000000000000000000000000000000000008152600401610e4a906138d7565b60405180910390fd5b92915050565b60085481565b6000610e69610c94565b9050600560149054906101000a900460ff16610eba576040517f08c379a0000000000000000000000000000000000000000000000000000000008152600401610eb190613a17565b60405180910390fd5b3373ffffffffffffffffffffffffffffffffffffffff163273ffffffffffffffffffffffffffffffffffffffff1614610f28576040517f08c379a0000000000000000000000000000000000000000000000000000000008152600401610f1f90613b37565b60405180910390fd5b6008548282610f379190613ccb565b10610f77576040517f08c379a0000000000000000000000000000000000000000000000000000000008152600401610f6e90613b77565b60405180910390fd5b600954821115610fbc576040517f08c379a0000000000000000000000000000000000000000000000000000000008152600401610fb390613b97565b60405180910390fd5b600e60003373ffffffffffffffffffffffffffffffffffffffff1673ffffffffffffffffffffffffffffffffffffffff16815260200190815260200160002060009054906101000a900460ff1615611049576040517f08c379a000000000000000000000000000000000000000000000000000000000815260040161104090613ab7565b60405180910390fd5b816006546110579190613d52565b341015611099576040517f08c379a000000000000000000000000000000000000000000000000000000000815260040161109090613a37565b60405180910390fd5b6001600e60003373ffffffffffffffffffffffffffffffffffffffff1673ffffffffffffffffffffffffffffffffffffffff16815260200190815260200160002060006101000a81548160ff02191690831515021790555060005b828110156111245761111133828461110c9190613ccb565b612606565b808061111c90613f03565b9150506110f4565b505050565b6111316122ae565b73ffffffffffffffffffffffffffffffffffffffff1661114f611a94565b73ffffffffffffffffffffffffffffffffffffffff16146111a5576040517f08c379a000000000000000000000000000000000000000000000000000000000815260040161119c90613a97565b60405180910390fd5b60004790503373ffffffffffffffffffffffffffffffffffffffff166108fc829081150290604051600060405180830381858888f193505050501580156111f0573d6000803e3d6000fd5b5050565b61120f83838360405180602001604052806000815250611d5d565b505050565b6000600280549050821061125d576040517f08c379a000000000000000000000000000000000000000000000000000000000815260040161125490613bb7565b60405180910390fd5b819050919050565b600061126f610c94565b905060003360405160200161128491906137ad565b604051602081830303815290604052805190602001209050600560159054906101000a900460ff166112eb576040517f08c379a00000000000000000000000000000000000000000000000000000000081526004016112e290613bf7565b60405180910390fd5b3373ffffffffffffffffffffffffffffffffffffffff163273ffffffffffffffffffffffffffffffffffffffff1614611359576040517f08c379a000000000000000000000000000000000000000000000000000000000815260040161135090613b37565b60405180910390fd5b600a5483111561139e576040517f08c379a000000000000000000000000000000000000000000000000000000000815260040161139590613b97565b60405180910390fd5b600d60003373ffffffffffffffffffffffffffffffffffffffff1673ffffffffffffffffffffffffffffffffffffffff16815260200190815260200160002060009054906101000a900460ff161561142b576040517f08c379a000000000000000000000000000000000000000000000000000000000815260040161142290613ab7565b60405180910390fd5b826007546114399190613d52565b34101561147b576040517f08c379a000000000000000000000000000000000000000000000000000000000815260040161147290613a37565b60405180910390fd5b6114c9858580806020026020016040519081016040528093929190818152602001838360200280828437600081840152601f19601f82011690508083019250505050505050600b5483612624565b611508576040517f08c379a00000000000000000000000000000000000000000000000000000000081526004016114ff90613bd7565b60405180910390fd5b6001600d60003373ffffffffffffffffffffffffffffffffffffffff1673ffffffffffffffffffffffffffffffffffffffff16815260200190815260200160002060006101000a81548160ff02191690831515021790555060005b838110156115935761158033828561157b9190613ccb565b612606565b808061158b90613f03565b915050611563565b505050505050565b6115a36122ae565b73ffffffffffffffffffffffffffffffffffffffff166115c1611a94565b73ffffffffffffffffffffffffffffffffffffffff1614611617576040517f08c379a000000000000000000000000000000000000000000000000000000000815260040161160e90613a97565b60405180910390fd5b8181600c9190611628929190612d84565b505050565b6116356122ae565b73ffffffffffffffffffffffffffffffffffffffff16611653611a94565b73ffffffffffffffffffffffffffffffffffffffff16146116a9576040517f08c379a00000000000000000000000000000000000000000000000000000000081526004016116a090613a97565b60405180910390fd5b60006116b3610c94565b905060005b828110156116e8576116d53382846116d09190613ccb565b612606565b80806116e090613f03565b9150506116b8565b505050565b600d6020528060005260406000206000915054906101000a900460ff1681565b60095481565b60075481565b600080600283815481106117305761172f614038565b5b9060005260206000200160009054906101000a900473ffffffffffffffffffffffffffffffffffffffff169050600073ffffffffffffffffffffffffffffffffffffffff168173ffffffffffffffffffffffffffffffffffffffff1614156117cd576040517f08c379a00000000000000000000000000000000000000000000000000000000081526004016117c4906139f7565b60405180910390fd5b80915050919050565b600c80546117e390613ea0565b80601f016020809104026020016040519081016040528092919081815260200182805461180f90613ea0565b801561185c5780601f106118315761010080835404028352916020019161185c565b820191906000526020600020905b81548152906001019060200180831161183f57829003601f168201915b505050505081565b60008073ffffffffffffffffffffffffffffffffffffffff168273ffffffffffffffffffffffffffffffffffffffff1614156118d5576040517f08c379a00000000000000000000000000000000000000000000000000000000081526004016118cc906139d7565b60405180910390fd5b6000805b60028054905081101561197657600281815481106118fa576118f9614038565b5b9060005260206000200160009054906101000a900473ffffffffffffffffffffffffffffffffffffffff1673ffffffffffffffffffffffffffffffffffffffff168473ffffffffffffffffffffffffffffffffffffffff161415611965578161196290613f03565b91505b8061196f90613f03565b90506118d9565b5080915050919050565b6119886122ae565b73ffffffffffffffffffffffffffffffffffffffff166119a6611a94565b73ffffffffffffffffffffffffffffffffffffffff16146119fc576040517f08c379a00000000000000000000000000000000000000000000000000000000081526004016119f390613a97565b60405180910390fd5b611a06600061263b565b565b600b5481565b611a166122ae565b73ffffffffffffffffffffffffffffffffffffffff16611a34611a94565b73ffffffffffffffffffffffffffffffffffffffff1614611a8a576040517f08c379a0000000000000000000000000000000000000000000000000000000008152600401611a8190613a97565b60405180910390fd5b8060068190555050565b6000600560009054906101000a900473ffffffffffffffffffffffffffffffffffffffff16905090565b606060018054611acd90613ea0565b80601f0160208091040260200160405190810160405280929190818152602001828054611af990613ea0565b8015611b465780601f10611b1b57610100808354040283529160200191611b46565b820191906000526020600020905b815481529060010190602001808311611b2957829003601f168201915b5050505050905090565b60065481565b611b5e6122ae565b73ffffffffffffffffffffffffffffffffffffffff168273ffffffffffffffffffffffffffffffffffffffff161415611bcc576040517f08c379a0000000000000000000000000000000000000000000000000000000008152600401611bc390613977565b60405180910390fd5b8060046000611bd96122ae565b73ffffffffffffffffffffffffffffffffffffffff1673ffffffffffffffffffffffffffffffffffffffff16815260200190815260200160002060008473ffffffffffffffffffffffffffffffffffffffff1673ffffffffffffffffffffffffffffffffffffffff16815260200190815260200160002060006101000a81548160ff0219169083151502179055508173ffffffffffffffffffffffffffffffffffffffff16611c866122ae565b73ffffffffffffffffffffffffffffffffffffffff167f17307eab39ab6107e8899845ad3d59bd9653f200f220920489ca2b5937696c3183604051611ccb919061387f565b60405180910390a35050565b611cdf6122ae565b73ffffffffffffffffffffffffffffffffffffffff16611cfd611a94565b73ffffffffffffffffffffffffffffffffffffffff1614611d53576040517f08c379a0000000000000000000000000000000000000000000000000000000008152600401611d4a90613a97565b60405180910390fd5b80600b8190555050565b611d6e611d686122ae565b8361236f565b611dad576040517f08c379a0000000000000000000000000000000000000000000000000000000008152600401611da490613b57565b60405180910390fd5b611db984848484612701565b50505050565b611dc76122ae565b73ffffffffffffffffffffffffffffffffffffffff16611de5611a94565b73ffffffffffffffffffffffffffffffffffffffff1614611e3b576040517f08c379a0000000000000000000000000000000000000000000000000000000008152600401611e3290613a97565b60405180910390fd5b8060078190555050565b6060611e5082612226565b611e8f576040517f08c379a0000000000000000000000000000000000000000000000000000000008152600401611e8690613af7565b60405180910390fd5b6000611e9961275d565b90506000815111611eb95760405180602001604052806000815250611ee4565b80611ec384612774565b604051602001611ed49291906137f4565b6040516020818303038152906040525b915050919050565b611ef46122ae565b73ffffffffffffffffffffffffffffffffffffffff16611f12611a94565b73ffffffffffffffffffffffffffffffffffffffff1614611f68576040517f08c379a0000000000000000000000000000000000000000000000000000000008152600401611f5f90613a97565b60405180910390fd5b80600560146101000a81548160ff02191690831515021790555050565b6000600460008473ffffffffffffffffffffffffffffffffffffffff1673ffffffffffffffffffffffffffffffffffffffff16815260200190815260200160002060008373ffffffffffffffffffffffffffffffffffffffff1673ffffffffffffffffffffffffffffffffffffffff16815260200190815260200160002060009054906101000a900460ff16905092915050565b6120216122ae565b73ffffffffffffffffffffffffffffffffffffffff1661203f611a94565b73ffffffffffffffffffffffffffffffffffffffff1614612095576040517f08c379a000000000000000000000000000000000000000000000000000000000815260040161208c90613a97565b60405180910390fd5b600073ffffffffffffffffffffffffffffffffffffffff168173ffffffffffffffffffffffffffffffffffffffff161415612105576040517f08c379a00000000000000000000000000000000000000000000000000000000081526004016120fc90613917565b60405180910390fd5b61210e8161263b565b50565b600e6020528060005260406000206000915054906101000a900460ff1681565b600560159054906101000a900460ff1681565b60007f80ac58cd000000000000000000000000000000000000000000000000000000007bffffffffffffffffffffffffffffffffffffffffffffffffffffffff1916827bffffffffffffffffffffffffffffffffffffffffffffffffffffffff1916148061220f57507f5b5e139f000000000000000000000000000000000000000000000000000000007bffffffffffffffffffffffffffffffffffffffffffffffffffffffff1916827bffffffffffffffffffffffffffffffffffffffffffffffffffffffff1916145b8061221f575061221e826128d5565b5b9050919050565b6000600280549050821080156122a75750600073ffffffffffffffffffffffffffffffffffffffff166002838154811061226357612262614038565b5b9060005260206000200160009054906101000a900473ffffffffffffffffffffffffffffffffffffffff1673ffffffffffffffffffffffffffffffffffffffff1614155b9050919050565b600033905090565b816003600083815260200190815260200160002060006101000a81548173ffffffffffffffffffffffffffffffffffffffff021916908373ffffffffffffffffffffffffffffffffffffffff160217905550808273ffffffffffffffffffffffffffffffffffffffff1661232983611719565b73ffffffffffffffffffffffffffffffffffffffff167f8c5be1e5ebec7d5bd14f71427d1e84f3dd0314c0f7b2291e5b200ac8c7c3b92560405160405180910390a45050565b600061237a82612226565b6123b9576040517f08c379a00000000000000000000000000000000000000000000000000000000081526004016123b090613997565b60405180910390fd5b60006123c483611719565b90508073ffffffffffffffffffffffffffffffffffffffff168473ffffffffffffffffffffffffffffffffffffffff16148061243357508373ffffffffffffffffffffffffffffffffffffffff1661241b84610a5e565b73ffffffffffffffffffffffffffffffffffffffff16145b8061244457506124438185611f85565b5b91505092915050565b8273ffffffffffffffffffffffffffffffffffffffff1661246d82611719565b73ffffffffffffffffffffffffffffffffffffffff16146124c3576040517f08c379a00000000000000000000000000000000000000000000000000000000081526004016124ba90613ad7565b60405180910390fd5b600073ffffffffffffffffffffffffffffffffffffffff168273ffffffffffffffffffffffffffffffffffffffff161415612533576040517f08c379a000000000000000000000000000000000000000000000000000000000815260040161252a90613957565b60405180910390fd5b61253e83838361293f565b6125496000826122b6565b816002828154811061255e5761255d614038565b5b9060005260206000200160006101000a81548173ffffffffffffffffffffffffffffffffffffffff021916908373ffffffffffffffffffffffffffffffffffffffff160217905550808273ffffffffffffffffffffffffffffffffffffffff168473ffffffffffffffffffffffffffffffffffffffff167fddf252ad1be2c89b69c2b068fc378daa952ba7f163c4a11628f55a4df523b3ef60405160405180910390a4505050565b612620828260405180602001604052806000815250612944565b5050565b600082612631858461299f565b1490509392505050565b6000600560009054906101000a900473ffffffffffffffffffffffffffffffffffffffff16905081600560006101000a81548173ffffffffffffffffffffffffffffffffffffffff021916908373ffffffffffffffffffffffffffffffffffffffff1602179055508173ffffffffffffffffffffffffffffffffffffffff168173ffffffffffffffffffffffffffffffffffffffff167f8be0079c531659141344cd1fd0a4f28419497f9722a3daafe3b4186f6b6457e060405160405180910390a35050565b61270c84848461244d565b61271884848484612a52565b612757576040517f08c379a000000000000000000000000000000000000000000000000000000000815260040161274e906138f7565b60405180910390fd5b50505050565b606060405180602001604052806000815250905090565b606060008214156127bc576040518060400160405280600181526020017f300000000000000000000000000000000000000000000000000000000000000081525090506128d0565b600082905060005b600082146127ee5780806127d790613f03565b915050600a826127e79190613d21565b91506127c4565b60008167ffffffffffffffff81111561280a57612809614067565b5b6040519080825280601f01601f19166020018201604052801561283c5781602001600182028036833780820191505090505b5090505b600085146128c9576001826128559190613dac565b9150600a856128649190613f7a565b60306128709190613ccb565b60f81b81838151811061288657612885614038565b5b60200101907effffffffffffffffffffffffffffffffffffffffffffffffffffffffffffff1916908160001a905350600a856128c29190613d21565b9450612840565b8093505050505b919050565b60007f01ffc9a7000000000000000000000000000000000000000000000000000000007bffffffffffffffffffffffffffffffffffffffffffffffffffffffff1916827bffffffffffffffffffffffffffffffffffffffffffffffffffffffff1916149050919050565b505050565b61294e8383612be9565b61295b6000848484612a52565b61299a576040517f08c379a0000000000000000000000000000000000000000000000000000000008152600401612991906138f7565b60405180910390fd5b505050565b60008082905060005b8451811015612a475760008582815181106129c6576129c5614038565b5b60200260200101519050808311612a075782816040516020016129ea9291906137c8565b604051602081830303815290604052805190602001209250612a33565b8083604051602001612a1a9291906137c8565b6040516020818303038152906040528051906020012092505b508080612a3f90613f03565b9150506129a8565b508091505092915050565b6000612a738473ffffffffffffffffffffffffffffffffffffffff16612d71565b15612bdc578373ffffffffffffffffffffffffffffffffffffffff1663150b7a02612a9c6122ae565b8786866040518563ffffffff1660e01b8152600401612abe9493929190613833565b602060405180830381600087803b158015612ad857600080fd5b505af1925050508015612b0957506040513d601f19601f82011682018060405250810190612b06919061326b565b60015b612b8c573d8060008114612b39576040519150601f19603f3d011682016040523d82523d6000602084013e612b3e565b606091505b50600081511415612b84576040517f08c379a0000000000000000000000000000000000000000000000000000000008152600401612b7b906138f7565b60405180910390fd5b805181602001fd5b63150b7a0260e01b7bffffffffffffffffffffffffffffffffffffffffffffffffffffffff1916817bffffffffffffffffffffffffffffffffffffffffffffffffffffffff191614915050612be1565b600190505b949350505050565b600073ffffffffffffffffffffffffffffffffffffffff168273ffffffffffffffffffffffffffffffffffffffff161415612c59576040517f08c379a0000000000000000000000000000000000000000000000000000000008152600401612c5090613a57565b60405180910390fd5b612c6281612226565b15612ca2576040517f08c379a0000000000000000000000000000000000000000000000000000000008152600401612c9990613937565b60405180910390fd5b612cae6000838361293f565b6002829080600181540180825580915050600190039060005260206000200160009091909190916101000a81548173ffffffffffffffffffffffffffffffffffffffff021916908373ffffffffffffffffffffffffffffffffffffffff160217905550808273ffffffffffffffffffffffffffffffffffffffff16600073ffffffffffffffffffffffffffffffffffffffff167fddf252ad1be2c89b69c2b068fc378daa952ba7f163c4a11628f55a4df523b3ef60405160405180910390a45050565b600080823b905060008111915050919050565b828054612d9090613ea0565b90600052602060002090601f016020900481019282612db25760008555612df9565b82601f10612dcb57803560ff1916838001178555612df9565b82800160010185558215612df9579182015b82811115612df8578235825591602001919060010190612ddd565b5b509050612e069190612e0a565b5090565b5b80821115612e23576000816000905550600101612e0b565b5090565b6000612e3a612e3584613c57565b613c32565b905082815260208101848484011115612e5657612e556140a5565b5b612e61848285613e5e565b509392505050565b600081359050612e7881614710565b92915050565b60008083601f840112612e9457612e9361409b565b5b8235905067ffffffffffffffff811115612eb157612eb0614096565b5b602083019150836020820283011115612ecd57612ecc6140a0565b5b9250929050565b600081359050612ee381614727565b92915050565b600081359050612ef88161473e565b92915050565b600081359050612f0d81614755565b92915050565b600081519050612f2281614755565b92915050565b600082601f830112612f3d57612f3c61409b565b5b8135612f4d848260208601612e27565b91505092915050565b60008083601f840112612f6c57612f6b61409b565b5b8235905067ffffffffffffffff811115612f8957612f88614096565b5b602083019150836001820283011115612fa557612fa46140a0565b5b9250929050565b600081359050612fbb8161476c565b92915050565b600060208284031215612fd757612fd66140af565b5b6000612fe584828501612e69565b91505092915050565b60008060408385031215613005576130046140af565b5b600061301385828601612e69565b925050602061302485828601612e69565b9150509250929050565b600080600060608486031215613047576130466140af565b5b600061305586828701612e69565b935050602061306686828701612e69565b925050604061307786828701612fac565b9150509250925092565b6000806000806080858703121561309b5761309a6140af565b5b60006130a987828801612e69565b94505060206130ba87828801612e69565b93505060406130cb87828801612fac565b925050606085013567ffffffffffffffff8111156130ec576130eb6140aa565b5b6130f887828801612f28565b91505092959194509250565b6000806040838503121561311b5761311a6140af565b5b600061312985828601612e69565b925050602061313a85828601612ed4565b9150509250929050565b6000806040838503121561315b5761315a6140af565b5b600061316985828601612e69565b925050602061317a85828601612fac565b9150509250929050565b60008060006040848603121561319d5761319c6140af565b5b600084013567ffffffffffffffff8111156131bb576131ba6140aa565b5b6131c786828701612e7e565b935093505060206131da86828701612fac565b9150509250925092565b6000602082840312156131fa576131f96140af565b5b600061320884828501612ed4565b91505092915050565b600060208284031215613227576132266140af565b5b600061323584828501612ee9565b91505092915050565b600060208284031215613254576132536140af565b5b600061326284828501612efe565b91505092915050565b600060208284031215613281576132806140af565b5b600061328f84828501612f13565b91505092915050565b600080602083850312156132af576132ae6140af565b5b600083013567ffffffffffffffff8111156132cd576132cc6140aa565b5b6132d985828601612f56565b92509250509250929050565b6000602082840312156132fb576132fa6140af565b5b600061330984828501612fac565b91505092915050565b61331b81613de0565b82525050565b61333261332d82613de0565b613f4c565b82525050565b61334181613df2565b82525050565b61335081613dfe565b82525050565b61336761336282613dfe565b613f5e565b82525050565b600061337882613c88565b6133828185613c9e565b9350613392818560208601613e6d565b61339b816140b4565b840191505092915050565b60006133b182613c93565b6133bb8185613caf565b93506133cb818560208601613e6d565b6133d4816140b4565b840191505092915050565b60006133ea82613c93565b6133f48185613cc0565b9350613404818560208601613e6d565b80840191505092915050565b600061341d602b83613caf565b9150613428826140d2565b604082019050919050565b6000613440603283613caf565b915061344b82614121565b604082019050919050565b6000613463602683613caf565b915061346e82614170565b604082019050919050565b6000613486601c83613caf565b9150613491826141bf565b602082019050919050565b60006134a9602483613caf565b91506134b4826141e8565b604082019050919050565b60006134cc601983613caf565b91506134d782614237565b602082019050919050565b60006134ef602c83613caf565b91506134fa82614260565b604082019050919050565b6000613512603883613caf565b915061351d826142af565b604082019050919050565b6000613535602a83613caf565b9150613540826142fe565b604082019050919050565b6000613558602983613caf565b91506135638261434d565b604082019050919050565b600061357b601983613caf565b91506135868261439c565b602082019050919050565b600061359e601383613caf565b91506135a9826143c5565b602082019050919050565b60006135c1602083613caf565b91506135cc826143ee565b602082019050919050565b60006135e4602c83613caf565b91506135ef82614417565b604082019050919050565b6000613607602083613caf565b915061361282614466565b602082019050919050565b600061362a601483613caf565b91506136358261448f565b602082019050919050565b600061364d602983613caf565b9150613658826144b8565b604082019050919050565b6000613670602f83613caf565b915061367b82614507565b604082019050919050565b6000613693602183613caf565b915061369e82614556565b604082019050919050565b60006136b6601283613caf565b91506136c1826145a5565b602082019050919050565b60006136d9603183613caf565b91506136e4826145ce565b604082019050919050565b60006136fc601e83613caf565b91506137078261461d565b602082019050919050565b600061371f601783613caf565b915061372a82614646565b602082019050919050565b6000613742602c83613caf565b915061374d8261466f565b604082019050919050565b6000613765600d83613caf565b9150613770826146be565b602082019050919050565b6000613788601c83613caf565b9150613793826146e7565b602082019050919050565b6137a781613e54565b82525050565b60006137b98284613321565b60148201915081905092915050565b60006137d48285613356565b6020820191506137e48284613356565b6020820191508190509392505050565b600061380082856133df565b915061380c82846133df565b91508190509392505050565b600060208201905061382d6000830184613312565b92915050565b60006080820190506138486000830187613312565b6138556020830186613312565b613862604083018561379e565b8181036060830152613874818461336d565b905095945050505050565b60006020820190506138946000830184613338565b92915050565b60006020820190506138af6000830184613347565b92915050565b600060208201905081810360008301526138cf81846133a6565b905092915050565b600060208201905081810360008301526138f081613410565b9050919050565b6000602082019050818103600083015261391081613433565b9050919050565b6000602082019050818103600083015261393081613456565b9050919050565b6000602082019050818103600083015261395081613479565b9050919050565b600060208201905081810360008301526139708161349c565b9050919050565b60006020820190508181036000830152613990816134bf565b9050919050565b600060208201905081810360008301526139b0816134e2565b9050919050565b600060208201905081810360008301526139d081613505565b9050919050565b600060208201905081810360008301526139f081613528565b9050919050565b60006020820190508181036000830152613a108161354b565b9050919050565b60006020820190508181036000830152613a308161356e565b9050919050565b60006020820190508181036000830152613a5081613591565b9050919050565b60006020820190508181036000830152613a70816135b4565b9050919050565b60006020820190508181036000830152613a90816135d7565b9050919050565b60006020820190508181036000830152613ab0816135fa565b9050919050565b60006020820190508181036000830152613ad08161361d565b9050919050565b60006020820190508181036000830152613af081613640565b9050919050565b60006020820190508181036000830152613b1081613663565b9050919050565b60006020820190508181036000830152613b3081613686565b9050919050565b60006020820190508181036000830152613b50816136a9565b9050919050565b60006020820190508181036000830152613b70816136cc565b9050919050565b60006020820190508181036000830152613b90816136ef565b9050919050565b60006020820190508181036000830152613bb081613712565b9050919050565b60006020820190508181036000830152613bd081613735565b9050919050565b60006020820190508181036000830152613bf081613758565b9050919050565b60006020820190508181036000830152613c108161377b565b9050919050565b6000602082019050613c2c600083018461379e565b92915050565b6000613c3c613c4d565b9050613c488282613ed2565b919050565b6000604051905090565b600067ffffffffffffffff821115613c7257613c71614067565b5b613c7b826140b4565b9050602081019050919050565b600081519050919050565b600081519050919050565b600082825260208201905092915050565b600082825260208201905092915050565b600081905092915050565b6000613cd682613e54565b9150613ce183613e54565b9250827fffffffffffffffffffffffffffffffffffffffffffffffffffffffffffffffff03821115613d1657613d15613fab565b5b828201905092915050565b6000613d2c82613e54565b9150613d3783613e54565b925082613d4757613d46613fda565b5b828204905092915050565b6000613d5d82613e54565b9150613d6883613e54565b9250817fffffffffffffffffffffffffffffffffffffffffffffffffffffffffffffffff0483118215151615613da157613da0613fab565b5b828202905092915050565b6000613db782613e54565b9150613dc283613e54565b925082821015613dd557613dd4613fab565b5b828203905092915050565b6000613deb82613e34565b9050919050565b60008115159050919050565b6000819050919050565b60007fffffffff0000000000000000000000000000000000000000000000000000000082169050919050565b600073ffffffffffffffffffffffffffffffffffffffff82169050919050565b6000819050919050565b82818337600083830152505050565b60005b83811015613e8b578082015181840152602081019050613e70565b83811115613e9a576000848401525b50505050565b60006002820490506001821680613eb857607f821691505b60208210811415613ecc57613ecb614009565b5b50919050565b613edb826140b4565b810181811067ffffffffffffffff82111715613efa57613ef9614067565b5b80604052505050565b6000613f0e82613e54565b91507fffffffffffffffffffffffffffffffffffffffffffffffffffffffffffffffff821415613f4157613f40613fab565b5b600182019050919050565b6000613f5782613f68565b9050919050565b6000819050919050565b6000613f73826140c5565b9050919050565b6000613f8582613e54565b9150613f9083613e54565b925082613fa057613f9f613fda565b5b828206905092915050565b7f4e487b7100000000000000000000000000000000000000000000000000000000600052601160045260246000fd5b7f4e487b7100000000000000000000000000000000000000000000000000000000600052601260045260246000fd5b7f4e487b7100000000000000000000000000000000000000000000000000000000600052602260045260246000fd5b7f4e487b7100000000000000000000000000000000000000000000000000000000600052603260045260246000fd5b7f4e487b7100000000000000000000000000000000000000000000000000000000600052604160045260246000fd5b600080fd5b600080fd5b600080fd5b600080fd5b600080fd5b600080fd5b6000601f19601f8301169050919050565b60008160601b9050919050565b7f455243373231456e756d657261626c653a206f776e657220696e646578206f7560008201527f74206f6620626f756e6473000000000000000000000000000000000000000000602082015250565b7f4552433732313a207472616e7366657220746f206e6f6e20455243373231526560008201527f63656976657220696d706c656d656e7465720000000000000000000000000000602082015250565b7f4f776e61626c653a206e6577206f776e657220697320746865207a65726f206160008201527f6464726573730000000000000000000000000000000000000000000000000000602082015250565b7f4552433732313a20746f6b656e20616c7265616479206d696e74656400000000600082015250565b7f4552433732313a207472616e7366657220746f20746865207a65726f2061646460008201527f7265737300000000000000000000000000000000000000000000000000000000602082015250565b7f4552433732313a20617070726f766520746f2063616c6c657200000000000000600082015250565b7f4552433732313a206f70657261746f7220717565727920666f72206e6f6e657860008201527f697374656e7420746f6b656e0000000000000000000000000000000000000000602082015250565b7f4552433732313a20617070726f76652063616c6c6572206973206e6f74206f7760008201527f6e6572206e6f7220617070726f76656420666f7220616c6c0000000000000000602082015250565b7f4552433732313a2062616c616e636520717565727920666f7220746865207a6560008201527f726f206164647265737300000000000000000000000000000000000000000000602082015250565b7f4552433732313a206f776e657220717565727920666f72206e6f6e657869737460008201527f656e7420746f6b656e0000000000000000000000000000000000000000000000602082015250565b7f5075626c69632073616c65206973206e6f742061637469766500000000000000600082015250565b7f457468657220616d6f756e742064656e69656400000000000000000000000000600082015250565b7f4552433732313a206d696e7420746f20746865207a65726f2061646472657373600082015250565b7f4552433732313a20617070726f76656420717565727920666f72206e6f6e657860008201527f697374656e7420746f6b656e0000000000000000000000000000000000000000602082015250565b7f4f776e61626c653a2063616c6c6572206973206e6f7420746865206f776e6572600082015250565b7f4d696e7420616c726561647920636c61696d6564000000000000000000000000600082015250565b7f4552433732313a207472616e73666572206f6620746f6b656e2074686174206960008201527f73206e6f74206f776e0000000000000000000000000000000000000000000000602082015250565b7f4552433732314d657461646174613a2055524920717565727920666f72206e6f60008201527f6e6578697374656e7420746f6b656e0000000000000000000000000000000000602082015250565b7f4552433732313a20617070726f76616c20746f2063757272656e74206f776e6560008201527f7200000000000000000000000000000000000000000000000000000000000000602082015250565b7f4f6e6c7920454f41732063616e206d696e740000000000000000000000000000600082015250565b7f4552433732313a207472616e736665722063616c6c6572206973206e6f74206f60008201527f776e6572206e6f7220617070726f766564000000000000000000000000000000602082015250565b7f4d6178696d756d206d696e74656420666f72207075626c69632073616c650000600082015250565b7f4d696e7420616d6f756e74206e6f7420616c6c6f776564000000000000000000600082015250565b7f455243373231456e756d657261626c653a20676c6f62616c20696e646578206f60008201527f7574206f6620626f756e64730000000000000000000000000000000000000000602082015250565b7f496e76616c69642070726f6f6600000000000000000000000000000000000000600082015250565b7f4d696e74206c6973742073616c65206973206e6f742061637469766500000000600082015250565b61471981613de0565b811461472457600080fd5b50565b61473081613df2565b811461473b57600080fd5b50565b61474781613dfe565b811461475257600080fd5b50565b61475e81613e08565b811461476957600080fd5b50565b61477581613e54565b811461478057600080fd5b5056fea2646970667358221220480e50149cce9baf5d598bbaa24c3fa2a67b6c9993b4ed040b32194c2eacc12b64736f6c63430008070033",
  "linkReferences": {},
  "deployedLinkReferences": {}
}